{
  "contractName": "Medical_record",
  "abi": [
    {
      "constant": true,
      "inputs": [
        {
          "name": "idx",
          "type": "bytes32"
        }
      ],
      "name": "getRecord",
      "outputs": [
        {
          "name": "pul",
          "type": "uint256"
        },
        {
          "name": "res",
          "type": "uint256"
        },
        {
          "name": "tem",
          "type": "uint256"
        },
        {
          "name": "bps",
          "type": "uint256"
        },
        {
          "name": "bpd",
          "type": "uint256"
        },
        {
          "name": "wgt",
          "type": "uint256"
        },
        {
          "name": "hft",
          "type": "uint256"
        },
        {
          "name": "hin",
          "type": "uint256"
        }
      ],
      "payable": false,
      "stateMutability": "view",
      "type": "function"
    },
    {
      "constant": true,
      "inputs": [
        {
          "name": "",
          "type": "uint256"
        }
      ],
      "name": "vrecords",
      "outputs": [
        {
          "name": "pulse",
          "type": "uint256"
        },
        {
          "name": "resprate",
          "type": "uint256"
        },
        {
          "name": "bodytemp",
          "type": "uint256"
        },
        {
          "name": "bpsystolic",
          "type": "uint256"
        },
        {
          "name": "bpdiastolic",
          "type": "uint256"
        },
        {
          "name": "weight",
          "type": "uint256"
        },
        {
          "name": "heightft",
          "type": "uint256"
        },
        {
          "name": "heightin",
          "type": "uint256"
        }
      ],
      "payable": false,
      "stateMutability": "view",
      "type": "function"
    },
    {
      "constant": true,
      "inputs": [],
      "name": "recIndex",
      "outputs": [
        {
          "name": "",
          "type": "uint256"
        },
        {
          "name": "res",
          "type": "uint256"
        },
        {
          "name": "tem",
          "type": "uint256"
        },
        {
          "name": "bps",
          "type": "uint256"
        },
        {
          "name": "bpd",
          "type": "uint256"
        },
        {
          "name": "wgt",
          "type": "uint256"
        },
        {
          "name": "hft",
          "type": "uint256"
        },
        {
          "name": "hin",
          "type": "uint256"
        }
      ],
      "payable": false,
      "stateMutability": "view",
      "type": "function"
    },
    {
      "constant": false,
      "inputs": [
        {
          "name": "newvitals",
          "type": "uint256[]"
        }
      ],
      "name": "updatenewVitals",
      "outputs": [
        {
          "name": "pul",
          "type": "uint256"
        },
        {
          "name": "res",
          "type": "uint256"
        },
        {
          "name": "tem",
          "type": "uint256"
        },
        {
          "name": "bps",
          "type": "uint256"
        },
        {
          "name": "bpd",
          "type": "uint256"
        },
        {
          "name": "wgt",
          "type": "uint256"
        },
        {
          "name": "hft",
          "type": "uint256"
        },
        {
          "name": "hin",
          "type": "uint256"
        }
      ],
      "payable": false,
      "stateMutability": "nonpayable",
      "type": "function"
    },
    {
      "constant": false,
      "inputs": [
        {
          "name": "newvitals",
          "type": "uint256[]"
        }
      ],
      "name": "updatenewVitals",
      "outputs": [],
      "payable": false,
      "stateMutability": "nonpayable",
      "type": "constructor"
    },
    {
      "inputs": [],
      "payable": false,
      "stateMutability": "nonpayable",
      "type": "constructor"
    }
  ],
  "bytecode": "0x6060604052341561000f57600080fd5b60006001819055506105a5806100266000396000f300606060405260043610610062576000357c0100000000000000000000000000000000000000000000000000000000900463ffffffff168063213681cd14610067578063370d4593146100d357806361f609e11461013b578063d9b9125814610164575b600080fd5b341561007257600080fd5b61008c6004808035600019169060200190919050506101be565b604051808981526020018881526020018781526020018681526020018581526020018481526020018381526020018281526020019850505050505050505060405180910390f35b34156100de57600080fd5b6100f46004808035906020019091905050610378565b604051808981526020018881526020018781526020018681526020018581526020018481526020018381526020018281526020019850505050505050505060405180910390f35b341561014657600080fd5b61014e6103c0565b6040518082815260200191505060405180910390f35b341561016f57600080fd5b6101bc6004808035906020019082018035906020019080806020026020016040519081016040528093929190818152602001838360200280828437820191505050505050919050506103c6565b005b6000806000806000806000806000807f63757272656e74000000000000000000000000000000000000000000000000008b60001916148061022257507f7072696f720000000000000000000000000000000000000000000000000000008b60001916145b151561022d57600080fd5b7f63757272656e74000000000000000000000000000000000000000000000000008b6000191614156102625760019150610294565b7f7072696f720000000000000000000000000000000000000000000000000000008b60001916141561029357600291505b5b81600154039050600081101515156102ab57600080fd5b6000808281526020019081526020016000206000015499506000808281526020019081526020016000206001015498506000808281526020019081526020016000206002015497506000808281526020019081526020016000206003015496506000808281526020019081526020016000206004015495506000808281526020019081526020016000206005015494506000808281526020019081526020016000206006015493506000808281526020019081526020016000206007015492505050919395975091939597565b60006020528060005260406000206000915090508060000154908060010154908060020154908060030154908060040154908060050154908060060154908060070154905088565b60015481565b8060008151811015156103d557fe5b9060200190602002015160008060015481526020019081526020016000206000018190555080600181518110151561040957fe5b9060200190602002015160008060015481526020019081526020016000206001018190555080600281518110151561043d57fe5b9060200190602002015160008060015481526020019081526020016000206002018190555080600381518110151561047157fe5b906020019060200201516000806001548152602001908152602001600020600301819055508060048151811015156104a557fe5b906020019060200201516000806001548152602001908152602001600020600401819055508060058151811015156104d957fe5b9060200190602002015160008060015481526020019081526020016000206005018190555080600681518110151561050d57fe5b9060200190602002015160008060015481526020019081526020016000206006018190555080600781518110151561054157fe5b9060200190602002015160008060015481526020019081526020016000206007018190555060018060008282540192505081905550505600a165627a7a72305820bebe0224529901f68b4d841dca2948ab6386331a10ecf789669590657fa986600029",
  "source": "pragma solidity ^0.4.18;\n\ncontract Medical_record {\n/* create data structure for patient vitals */\n\nstruct Vitals {\n    uint pulse;\n    uint resprate;\n    uint bodytemp;\n    uint bpsystolic;\n    uint bpdiastolic;\n    uint weight;\n    uint heightft;\n    uint heightin;\n}\n\nmapping(uint => Vitals) public vrecords;\nuint public recIndex;\n\n/* Constructor. This is called only once during blockchain deployment to \ncreate a new medical record contract of a person\n*/\nfunction Medical_record() public{\n    recIndex = 0;\n}\n\nfunction updatenewVitals(uint[] newvitals) public{\n\n    vrecords[recIndex].pulse = newvitals[0];\n    vrecords[recIndex].resprate = newvitals[1];\n    vrecords[recIndex].bodytemp = newvitals[2];\n    vrecords[recIndex].bpsystolic = newvitals[3];\n    vrecords[recIndex].bpdiastolic = newvitals[4];\n    vrecords[recIndex].weight = newvitals[5];\n    vrecords[recIndex].heightft = newvitals[6];\n    vrecords[recIndex].heightin = newvitals[7];\n    recIndex += 1;\n\n}\n// if idx = 'current' it will return current record, if idx = 'prior' it will return prior\n// record.  \nfunction getRecord(bytes32 idx) constant public returns (\n    uint pul,\n    uint res,\n    uint tem,\n    uint bps,\n    uint bpd,\n    uint wgt,\n    uint hft,\n    uint hin\n){\n\n    uint offset;\n    require(idx == 'current' || idx == 'prior');\n    if (idx == 'current'){\n        offset = 1;\n    }else if (idx == 'prior'){\n        offset = 2;\n    }\n    uint index = (recIndex - offset);\n    require(index >= 0);\n    pul = vrecords[index].pulse;\n    res = vrecords[index].resprate;\n    tem = vrecords[index].bodytemp;\n    bps = vrecords[index].bpsystolic;\n    bpd = vrecords[index].bpdiastolic;\n    wgt = vrecords[index].weight;\n    hft = vrecords[index].heightft;\n    hin = vrecords[index].heightin;\n\n}\n\n}\n",
  "sourcePath": "/home/sabaysmu/medrec/contracts/Medical_record.sol",
  "compiler": {
    "name": "solc",
    "version": "0.4.18+commit.9cf6e910.Emscripten.clang"
  },
  "schemaVersion": "1.0.1",
  "updatedAt": "2017-11-25T10:46:20.934Z"
}